{
  "_format": "hh-sol-artifact-1",
  "contractName": "Guandan",
  "sourceName": "contracts/Guandan.sol",
  "abi": [
    {
      "inputs": [],
      "stateMutability": "nonpayable",
      "type": "constructor"
    },
    {
      "inputs": [],
      "name": "admin",
      "outputs": [
        {
          "internalType": "address",
          "name": "",
          "type": "address"
        }
      ],
      "stateMutability": "view",
      "type": "function"
    },
    {
      "inputs": [
        {
          "internalType": "address",
          "name": "sender",
          "type": "address"
        },
        {
          "components": [
            {
              "internalType": "address",
              "name": "sender",
              "type": "address"
            },
            {
              "components": [
                {
                  "internalType": "uint256",
                  "name": "cardId",
                  "type": "uint256"
                },
                {
                  "internalType": "uint256",
                  "name": "num",
                  "type": "uint256"
                },
                {
                  "internalType": "uint256",
                  "name": "color",
                  "type": "uint256"
                },
                {
                  "internalType": "address",
                  "name": "owner",
                  "type": "address"
                },
                {
                  "internalType": "bool",
                  "name": "status",
                  "type": "bool"
                }
              ],
              "internalType": "struct Guandan.card[]",
              "name": "cards",
              "type": "tuple[]"
            }
          ],
          "internalType": "struct Guandan.cardArray",
          "name": "cardArr",
          "type": "tuple"
        }
      ],
      "name": "checkCardArray",
      "outputs": [
        {
          "internalType": "bool",
          "name": "",
          "type": "bool"
        }
      ],
      "stateMutability": "view",
      "type": "function"
    },
    {
      "inputs": [
        {
          "internalType": "uint256",
          "name": "gameId",
          "type": "uint256"
        }
      ],
      "name": "checkGameId",
      "outputs": [
        {
          "internalType": "bool",
          "name": "",
          "type": "bool"
        }
      ],
      "stateMutability": "view",
      "type": "function"
    },
    {
      "inputs": [
        {
          "internalType": "address[]",
          "name": "playerAddrs",
          "type": "address[]"
        }
      ],
      "name": "checkPlayers",
      "outputs": [
        {
          "internalType": "bool",
          "name": "",
          "type": "bool"
        }
      ],
      "stateMutability": "view",
      "type": "function"
    },
    {
      "inputs": [
        {
          "internalType": "uint256",
          "name": "gameId",
          "type": "uint256"
        },
        {
          "internalType": "uint256",
          "name": "roundId",
          "type": "uint256"
        }
      ],
      "name": "checkRoundId",
      "outputs": [
        {
          "internalType": "bool",
          "name": "",
          "type": "bool"
        }
      ],
      "stateMutability": "view",
      "type": "function"
    },
    {
      "inputs": [
        {
          "internalType": "uint256",
          "name": "",
          "type": "uint256"
        }
      ],
      "name": "deck",
      "outputs": [
        {
          "internalType": "uint256",
          "name": "",
          "type": "uint256"
        }
      ],
      "stateMutability": "view",
      "type": "function"
    },
    {
      "inputs": [
        {
          "internalType": "uint256",
          "name": "gameId",
          "type": "uint256"
        }
      ],
      "name": "gameResultQuery",
      "outputs": [
        {
          "internalType": "bool",
          "name": "",
          "type": "bool"
        },
        {
          "internalType": "address",
          "name": "",
          "type": "address"
        },
        {
          "internalType": "address",
          "name": "",
          "type": "address"
        }
      ],
      "stateMutability": "view",
      "type": "function"
    },
    {
      "inputs": [
        {
          "internalType": "uint256",
          "name": "cardNum",
          "type": "uint256"
        }
      ],
      "name": "getCard",
      "outputs": [
        {
          "internalType": "uint256",
          "name": "",
          "type": "uint256"
        },
        {
          "internalType": "uint256",
          "name": "",
          "type": "uint256"
        }
      ],
      "stateMutability": "pure",
      "type": "function"
    },
    {
      "inputs": [],
      "name": "globalSalt",
      "outputs": [
        {
          "internalType": "uint256",
          "name": "",
          "type": "uint256"
        }
      ],
      "stateMutability": "view",
      "type": "function"
    },
    {
      "inputs": [
        {
          "internalType": "address[]",
          "name": "playerAddrs",
          "type": "address[]"
        }
      ],
      "name": "initGame",
      "outputs": [],
      "stateMutability": "nonpayable",
      "type": "function"
    },
    {
      "inputs": [
        {
          "internalType": "uint256",
          "name": "gameId",
          "type": "uint256"
        },
        {
          "internalType": "address[]",
          "name": "playerAddrs",
          "type": "address[]"
        }
      ],
      "name": "initRound",
      "outputs": [],
      "stateMutability": "nonpayable",
      "type": "function"
    },
    {
      "inputs": [
        {
          "components": [
            {
              "internalType": "uint256",
              "name": "cardId",
              "type": "uint256"
            },
            {
              "internalType": "uint256",
              "name": "num",
              "type": "uint256"
            },
            {
              "internalType": "uint256",
              "name": "color",
              "type": "uint256"
            },
            {
              "internalType": "address",
              "name": "owner",
              "type": "address"
            },
            {
              "internalType": "bool",
              "name": "status",
              "type": "bool"
            }
          ],
          "internalType": "struct Guandan.card[]",
          "name": "cards",
          "type": "tuple[]"
        }
      ],
      "name": "judgeBoom",
      "outputs": [
        {
          "internalType": "bool",
          "name": "",
          "type": "bool"
        }
      ],
      "stateMutability": "pure",
      "type": "function"
    },
    {
      "inputs": [
        {
          "components": [
            {
              "internalType": "uint256",
              "name": "cardId",
              "type": "uint256"
            },
            {
              "internalType": "uint256",
              "name": "num",
              "type": "uint256"
            },
            {
              "internalType": "uint256",
              "name": "color",
              "type": "uint256"
            },
            {
              "internalType": "address",
              "name": "owner",
              "type": "address"
            },
            {
              "internalType": "bool",
              "name": "status",
              "type": "bool"
            }
          ],
          "internalType": "struct Guandan.card[]",
          "name": "cards",
          "type": "tuple[]"
        }
      ],
      "name": "judgeCardType",
      "outputs": [
        {
          "internalType": "enum Guandan.cardType",
          "name": "cType",
          "type": "uint8"
        },
        {
          "internalType": "uint256",
          "name": "cardCount",
          "type": "uint256"
        }
      ],
      "stateMutability": "pure",
      "type": "function"
    },
    {
      "inputs": [
        {
          "components": [
            {
              "internalType": "uint256",
              "name": "cardId",
              "type": "uint256"
            },
            {
              "internalType": "uint256",
              "name": "num",
              "type": "uint256"
            },
            {
              "internalType": "uint256",
              "name": "color",
              "type": "uint256"
            },
            {
              "internalType": "address",
              "name": "owner",
              "type": "address"
            },
            {
              "internalType": "bool",
              "name": "status",
              "type": "bool"
            }
          ],
          "internalType": "struct Guandan.card[]",
          "name": "cards",
          "type": "tuple[]"
        }
      ],
      "name": "judgeStraight",
      "outputs": [
        {
          "internalType": "bool",
          "name": "",
          "type": "bool"
        },
        {
          "internalType": "bool",
          "name": "",
          "type": "bool"
        }
      ],
      "stateMutability": "pure",
      "type": "function"
    },
    {
      "inputs": [
        {
          "components": [
            {
              "internalType": "uint256",
              "name": "cardId",
              "type": "uint256"
            },
            {
              "internalType": "uint256",
              "name": "num",
              "type": "uint256"
            },
            {
              "internalType": "uint256",
              "name": "color",
              "type": "uint256"
            },
            {
              "internalType": "address",
              "name": "owner",
              "type": "address"
            },
            {
              "internalType": "bool",
              "name": "status",
              "type": "bool"
            }
          ],
          "internalType": "struct Guandan.card[]",
          "name": "cards",
          "type": "tuple[]"
        }
      ],
      "name": "judgeTriplePair",
      "outputs": [
        {
          "internalType": "bool",
          "name": "",
          "type": "bool"
        }
      ],
      "stateMutability": "pure",
      "type": "function"
    },
    {
      "inputs": [
        {
          "components": [
            {
              "internalType": "uint256",
              "name": "cardId",
              "type": "uint256"
            },
            {
              "internalType": "uint256",
              "name": "num",
              "type": "uint256"
            },
            {
              "internalType": "uint256",
              "name": "color",
              "type": "uint256"
            },
            {
              "internalType": "address",
              "name": "owner",
              "type": "address"
            },
            {
              "internalType": "bool",
              "name": "status",
              "type": "bool"
            }
          ],
          "internalType": "struct Guandan.card[]",
          "name": "cards",
          "type": "tuple[]"
        }
      ],
      "name": "judgeTwoTripleSingle",
      "outputs": [
        {
          "internalType": "bool",
          "name": "",
          "type": "bool"
        }
      ],
      "stateMutability": "pure",
      "type": "function"
    },
    {
      "inputs": [],
      "name": "nextGameId",
      "outputs": [
        {
          "internalType": "uint256",
          "name": "",
          "type": "uint256"
        }
      ],
      "stateMutability": "view",
      "type": "function"
    },
    {
      "inputs": [
        {
          "internalType": "address[]",
          "name": "playerAddrs",
          "type": "address[]"
        }
      ],
      "name": "randomHandCard",
      "outputs": [],
      "stateMutability": "nonpayable",
      "type": "function"
    },
    {
      "inputs": [
        {
          "internalType": "uint256",
          "name": "salt",
          "type": "uint256"
        }
      ],
      "name": "randomTeammate",
      "outputs": [
        {
          "internalType": "uint256",
          "name": "",
          "type": "uint256"
        }
      ],
      "stateMutability": "view",
      "type": "function"
    },
    {
      "inputs": [
        {
          "internalType": "address",
          "name": "playerAddr",
          "type": "address"
        }
      ],
      "name": "registerPlayer",
      "outputs": [],
      "stateMutability": "nonpayable",
      "type": "function"
    },
    {
      "inputs": [
        {
          "internalType": "uint256",
          "name": "gameId",
          "type": "uint256"
        },
        {
          "internalType": "uint256",
          "name": "roundId",
          "type": "uint256"
        },
        {
          "internalType": "address[]",
          "name": "senderAddrs",
          "type": "address[]"
        },
        {
          "components": [
            {
              "internalType": "address",
              "name": "sender",
              "type": "address"
            },
            {
              "components": [
                {
                  "internalType": "uint256",
                  "name": "cardId",
                  "type": "uint256"
                },
                {
                  "internalType": "uint256",
                  "name": "num",
                  "type": "uint256"
                },
                {
                  "internalType": "uint256",
                  "name": "color",
                  "type": "uint256"
                },
                {
                  "internalType": "address",
                  "name": "owner",
                  "type": "address"
                },
                {
                  "internalType": "bool",
                  "name": "status",
                  "type": "bool"
                }
              ],
              "internalType": "struct Guandan.card[]",
              "name": "cards",
              "type": "tuple[]"
            }
          ],
          "internalType": "struct Guandan.cardArray[]",
          "name": "arrays",
          "type": "tuple[]"
        }
      ],
      "name": "roundProcess",
      "outputs": [
        {
          "internalType": "bool",
          "name": "",
          "type": "bool"
        },
        {
          "internalType": "address[]",
          "name": "",
          "type": "address[]"
        }
      ],
      "stateMutability": "nonpayable",
      "type": "function"
    },
    {
      "inputs": [
        {
          "internalType": "uint256",
          "name": "gameId",
          "type": "uint256"
        },
        {
          "internalType": "uint256",
          "name": "roundId",
          "type": "uint256"
        },
        {
          "internalType": "address",
          "name": "sender",
          "type": "address"
        },
        {
          "components": [
            {
              "internalType": "address",
              "name": "sender",
              "type": "address"
            },
            {
              "components": [
                {
                  "internalType": "uint256",
                  "name": "cardId",
                  "type": "uint256"
                },
                {
                  "internalType": "uint256",
                  "name": "num",
                  "type": "uint256"
                },
                {
                  "internalType": "uint256",
                  "name": "color",
                  "type": "uint256"
                },
                {
                  "internalType": "address",
                  "name": "owner",
                  "type": "address"
                },
                {
                  "internalType": "bool",
                  "name": "status",
                  "type": "bool"
                }
              ],
              "internalType": "struct Guandan.card[]",
              "name": "cards",
              "type": "tuple[]"
            }
          ],
          "internalType": "struct Guandan.cardArray",
          "name": "cardArrs",
          "type": "tuple"
        }
      ],
      "name": "sendCardArray",
      "outputs": [
        {
          "internalType": "bool",
          "name": "",
          "type": "bool"
        }
      ],
      "stateMutability": "view",
      "type": "function"
    },
    {
      "inputs": [
        {
          "internalType": "uint256",
          "name": "gameId",
          "type": "uint256"
        },
        {
          "internalType": "uint256",
          "name": "roundId",
          "type": "uint256"
        },
        {
          "internalType": "address[]",
          "name": "fromAddr",
          "type": "address[]"
        },
        {
          "internalType": "address[]",
          "name": "toAddr",
          "type": "address[]"
        },
        {
          "components": [
            {
              "internalType": "uint256",
              "name": "cardId",
              "type": "uint256"
            },
            {
              "internalType": "uint256",
              "name": "num",
              "type": "uint256"
            },
            {
              "internalType": "uint256",
              "name": "color",
              "type": "uint256"
            },
            {
              "internalType": "address",
              "name": "owner",
              "type": "address"
            },
            {
              "internalType": "bool",
              "name": "status",
              "type": "bool"
            }
          ],
          "internalType": "struct Guandan.card[]",
          "name": "cards",
          "type": "tuple[]"
        },
        {
          "internalType": "bool",
          "name": "flag",
          "type": "bool"
        }
      ],
      "name": "swapCard",
      "outputs": [
        {
          "internalType": "bool",
          "name": "",
          "type": "bool"
        }
      ],
      "stateMutability": "nonpayable",
      "type": "function"
    }
  ],
  "bytecode": "0x608060405234801561001057600080fd5b50600080546001600160a01b03191633178155600181905560038190555b606c8110156100735760028054600181810183556000929092527f405787fa12a823e0f2b7631cc41b3ba8828b3321ca811111fa75cd3aa3bb5ace018290550161002e565b5061368080620000846000396000f3fe608060405234801561001057600080fd5b506004361061014d5760003560e01c80637f34b05f116100c3578063b182b1721161007c578063b182b17214610307578063b92c1a321461031a578063c38b38c71461032d578063d8fe203714610340578063e5a6c4ef14610353578063f851a4401461037457600080fd5b80637f34b05f1461026f5780638e2981fc1461029957806390e95463146102ba5780639188d312146102c3578063934f6664146102eb578063b135bbb0146102fe57600080fd5b80633961c85a116101155780633961c85a146101ef5780633f915a901461021057806365b1dafa146102235780636b5cc6d9146102365780637ae07019146102495780637d5ab8361461025c57600080fd5b8063017d2ca9146101525780630565ccfa1461019157806311600d65146101b45780631c7dcbb5146101c757806336e3ad19146101da575b600080fd5b610165610160366004612edb565b61039f565b6040805193151584526001600160a01b0392831660208501529116908201526060015b60405180910390f35b6101a461019f36600461306a565b61045c565b6040519015158152602001610188565b6101a46101c2366004613115565b6104fb565b6101a46101d5366004613176565b610761565b6101ed6101e8366004613235565b6107f4565b005b6102026101fd366004612edb565b6109d2565b604051908152602001610188565b6101ed61021e366004613272565b610a1d565b610202610231366004612edb565b610d57565b6101ed6102443660046132a7565b610d78565b6101a461025736600461306a565b610efa565b6101a461026a366004612edb565b61104a565b61028261027d36600461306a565b61107f565b604080519215158352901515602083015201610188565b6102ac6102a736600461306a565b611168565b6040516101889291906132d8565b61020260035481565b6102d66102d1366004612edb565b61158c565b60408051928352602083019190915201610188565b6101a46102f9366004613304565b6115ef565b61020260015481565b6101a461031536600461306a565b61166d565b6101ed610328366004613272565b6116eb565b6101a461033b366004613326565b611da5565b6101a461034e366004613272565b612718565b6103666103613660046133d1565b6127b1565b6040516101889291906134ba565b600054610387906001600160a01b031681565b6040516001600160a01b039091168152602001610188565b60008060006103ad8461104a565b15156001146103f55760405162461bcd60e51b815260206004820152600f60248201526e24b73b30b634b21033b0b6b2a4b21760891b60448201526064015b60405180910390fd5b60008481526006602052604090206005015460031461041c57506000915081905080610455565b5050506000818152600660209081526040808320600401546001600160a01b039081168085526005938490529190932090910154600192165b9193909250565b60006001815b60058110156104f457805b61047882600261351e565b8110156104db578461048b82600161351e565b8151811061049b5761049b613531565b6020026020010151602001518582815181106104b9576104b9613531565b602002602001015160200151146104d357600092506104db565b60010161046d565b5081156104f4576104ed81600361351e565b9050610462565b5092915050565b600081602001515160000361051257506001610759565b61051c85856115ef565b151560011461053d5760405162461bcd60e51b81526004016103ec90613547565b6105478383610761565b151560011461058e5760405162461bcd60e51b815260206004820152601360248201527224b73b30b634b21031b0b9321030b93930bc9760691b60448201526064016103ec565b60008061059e8460200151611168565b9092509050600082600c8111156105b7576105b76132c2565b036105c757600092505050610759565b60008781526007602090815260408083208984528252808320815161010081018352815481526001820154938101939093526002810154918301919091526003810154606083019060ff16600c811115610623576106236132c2565b600c811115610634576106346132c2565b8152600391909101546001600160a01b0361010082048116602084015260ff600160a81b8304811615156040850152600160b01b8304811615156060850152600160b81b9092049091161515608092830152908201519192508781169116036106cf576060810183600c8111156106ad576106ad6132c2565b9081600c8111156106c0576106c06132c2565b90525060408101829052610751565b8060600151600c8111156106e5576106e56132c2565b83600c8111156106f7576106f76132c2565b146107085760009350505050610759565b600183600c81111561071c5761071c6132c2565b03610743578060200151820361073e57600f8160400151109350505050610759565b610751565b604001511091506107599050565b600193505050505b949350505050565b602081015151600090815b818110156107e7576001600160a01b03851660008181526004602090815260408220908701518051919291859081106107a7576107a7613531565b602090810291909101810151518252810191909152604001600020600301546001600160a01b0316146107df576000925050506107ee565b60010161076c565b5060019150505b92915050565b6000828152600660205260409020600501546001148061082557506000828152600660205260409020600501546002145b61087d5760405162461bcd60e51b815260206004820152602360248201527f546869732067616d6520646f65736e2774206578697374206f72206973206f7660448201526232b91760e91b60648201526084016103ec565b604080516101008101825260008481526006602090815283822060019081015484526002828501818152858701858152606087018681526080880187905260a0880187905260c0880187905260e088018590528a875260078652888720885188529095529690942085518155935184830155945194830194909455516003820180549394859460ff19169083600c81111561091a5761091a6132c2565b021790555060808201516003909101805460a084015160c085015160e0909501511515600160b81b0260ff60b81b19951515600160b01b029590951661ffff60b01b19911515600160a81b0260ff60a81b196001600160a01b039096166101000295909516610100600160b01b03199093169290921793909317929092169190911791909117905560008381526006602052604081206001018054916109bf8361357e565b91905055506109cd82610a1d565b505050565b600080600342846040516020016109f3929190918252602082015260400190565b6040516020818303038152906040528051906020012060001c610a1691906135ad565b9392505050565b6000546001600160a01b03163314610a475760405162461bcd60e51b81526004016103ec906135c1565b600254606c1115610a915760405162461bcd60e51b815260206004820152601460248201527324b73b30b634b2103232b1b5903632b733ba341760611b60448201526064016103ec565b608060005b601b8110156109cd5760005b6004811015610d4e57604080514260208201529081018390526060810182905260009084906080016040516020818303038152906040528051906020012060001c610aed91906135ad565b9050600060028281548110610b0457610b04613531565b906000526020600020015490506002600186610b20919061360c565b81548110610b3057610b30613531565b906000526020600020015460028381548110610b4e57610b4e613531565b60009182526020909120015584610b648161361f565b955050600080610b738361158c565b809250819350505060006040518060a001604052808881526020018481526020018381526020018a8881518110610bac57610bac613531565b60200260200101516001600160a01b0316815260200160011515815250905080600460008b8981518110610be257610be2613531565b6020908102919091018101516001600160a01b03908116835282820193909352604091820160009081208c82528252828120855181559185015160018301559184015160028201556060840151600390910180546080909501511515600160a01b026001600160a81b031990951691909316179290921790558951600591908b9089908110610c7357610c73613531565b60200260200101516001600160a01b03166001600160a01b0316815260200190815260200160002060060154821115610ced5781600560008b8981518110610cbd57610cbd613531565b60200260200101516001600160a01b03166001600160a01b03168152602001908152602001600020600601819055505b86600003610d3d576000600560008b8981518110610d0d57610d0d613531565b60200260200101516001600160a01b03166001600160a01b03168152602001908152602001600020600701819055505b505060019093019250610aa2915050565b50600101610a96565b60028181548110610d6757600080fd5b600091825260209091200154905081565b6000546001600160a01b03163314610da25760405162461bcd60e51b81526004016103ec906135c1565b6001600160a01b03811660009081526005602052604090206008015460ff1615610e2c5760405162461bcd60e51b815260206004820152603560248201527f5468697320616464726573732068617320616c7265616479206265656e20726560448201527433b4b9ba32b932b21030b9903090383630bcb2b91760591b60648201526084016103ec565b60408051610120810182526001600160a01b0392831680825260006020808401828152848601838152606086018481526080870185815260a0880186815260c0890187815260e08a0188815260016101008c018181529a8a526005988990529b90982099518a54908d166001600160a01b0319918216178b5595519a8a019a909a559251600289015590516003880155516004870155519185018054929097169116179094559151600682015591516007830155516008909101805491151560ff1992909216919091179055565b60006001815b6005811015610f6f5783610f1582600161351e565b81518110610f2557610f25613531565b602002602001015160200151848281518110610f4357610f43613531565b60200260200101516020015114610f5d5760009150610f6f565b610f6881600261351e565b9050610f00565b5082600281518110610f8357610f83613531565b60200260200101516020015183600081518110610fa257610fa2613531565b60200260200101516020015103610fb7575060005b82600481518110610fca57610fca613531565b60200260200101516020015183600081518110610fe957610fe9613531565b60200260200101516020015103610ffe575060005b8260048151811061101157611011613531565b6020026020010151602001518360028151811061103057611030613531565b602002602001015160200151036107ee5750600092915050565b600081815260066020526040812060050154158015906107ee5750506000908152600660205260409020600501546003141590565b600080825160051461109657506000928392509050565b60018060005b600481101561115d57856110b182600161351e565b815181106110c1576110c1613531565b6020026020010151602001518682815181106110df576110df613531565b60200260200101516020015160016110f7919061351e565b14611105576000925061115d565b8561111182600161351e565b8151811061112157611121613531565b60200260200101516040015186828151811061113f5761113f613531565b6020026020010151604001511461115557600091505b60010161109c565b509094909350915050565b600080600083519050806001036111a45760018460008151811061118e5761118e613531565b6020026020010151602001519250925050915091565b8060020361121057836001815181106111bf576111bf613531565b602002602001015160200151846000815181106111de576111de613531565b602002602001015160200151036112045760028460008151811061118e5761118e613531565b50600093849350915050565b806003036112b8578360018151811061122b5761122b613531565b6020026020010151602001518460008151811061124a5761124a613531565b60200260200101516020015114801561129e57508360028151811061127157611271613531565b6020026020010151602001518460008151811061129057611290613531565b602002602001015160200151145b156112045760038460008151811061118e5761118e613531565b80600403611396576112c98461166d565b156112e35760048460008151811061118e5761118e613531565b836003815181106112f6576112f6613531565b6020026020010151602001518460028151811061131557611315613531565b6020026020010151602001518560018151811061133457611334613531565b6020026020010151602001518660008151811061135357611353613531565b602002602001015160200151611369919061351e565b611373919061351e565b61137d919061351e565b603e03611204575060059360109350915050565b611586565b80600503611515576113a78461166d565b156113c15760068460008151811061118e5761118e613531565b836001815181106113d4576113d4613531565b602002602001015160200151846000815181106113f3576113f3613531565b60200260200101516020015114801561144757508360028151811061141a5761141a613531565b6020026020010151602001518460008151811061143957611439613531565b602002602001015160200151145b801561148e57508360048151811061146157611461613531565b6020026020010151602001518460038151811061148057611480613531565b602002602001015160200151145b156114a85760078460008151811061118e5761118e613531565b6000806114b48661107f565b909250905081156115075780156114f2576008866000815181106114da576114da613531565b60200260200101516020015194509450505050915091565b6009866000815181106114da576114da613531565b506000958695509350505050565b80600603611204576115268461166d565b1561154057600a8460008151811061118e5761118e613531565b61154984610efa565b1561156357600b8460008151811061118e5761118e613531565b61156c8461045c565b1561139157600c8460008151811061118e5761118e613531565b50915091565b60008080600d61159d6036866135ad565b6115a79190613636565b90506000600d6115b86036876135ad565b6115c291906135ad565b6115cd90600261351e565b9050816004036115e5576115e2600d8261351e565b90505b9094909350915050565b60006115fa8361104a565b151560000361160b575060006107ee565b6000838152600760209081526040808320858452909152902060030154600160b01b900460ff16158015610a1657506000838152600760209081526040808320858452909152902060030154600160b81b900460ff1615156001149392505050565b6000805b6001835161167f919061360c565b8110156116e2578261169282600161351e565b815181106116a2576116a2613531565b6020026020010151602001518382815181106116c0576116c0613531565b602002602001015160200151146116da5750600092915050565b600101611671565b50600192915050565b6000546001600160a01b031633146117155760405162461bcd60e51b81526004016103ec906135c1565b61171e81612718565b15156001146117665760405162461bcd60e51b8152602060048201526014602482015273283630bcb2b91031b432b1b5903330b4b632b21760611b60448201526064016103ec565b6040805160c0810182526001805480835260006020808501828152858701888152606087018990526080870184905260a087018690529383526006825295909120845181559451928501929092555180519293849390926117ce926002850192910190612e40565b50606082015180516117ea916003840191602090910190612e40565b5060808201516004820180546001600160a01b0319166001600160a01b0390921691909117905560a0909101516005909101556001805490600061182d8361357e565b9190505550600061183f6003546109d2565b905080600003611a52578260018151811061185c5761185c613531565b6020026020010151600560008560008151811061187b5761187b613531565b60200260200101516001600160a01b03166001600160a01b0316815260200190815260200160002060050160006101000a8154816001600160a01b0302191690836001600160a01b03160217905550826000815181106118dd576118dd613531565b602002602001015160056000856001815181106118fc576118fc613531565b60200260200101516001600160a01b03166001600160a01b0316815260200190815260200160002060050160006101000a8154816001600160a01b0302191690836001600160a01b031602179055508260038151811061195e5761195e613531565b6020026020010151600560008560028151811061197d5761197d613531565b60200260200101516001600160a01b03166001600160a01b0316815260200190815260200160002060050160006101000a8154816001600160a01b0302191690836001600160a01b03160217905550826002815181106119df576119df613531565b602002602001015160056000856003815181106119fe576119fe613531565b60200260200101516001600160a01b03166001600160a01b0316815260200190815260200160002060050160006101000a8154816001600160a01b0302191690836001600160a01b03160217905550505050565b80600103611bf05782600281518110611a6d57611a6d613531565b60200260200101516005600085600081518110611a8c57611a8c613531565b60200260200101516001600160a01b03166001600160a01b0316815260200190815260200160002060050160006101000a8154816001600160a01b0302191690836001600160a01b0316021790555082600081518110611aee57611aee613531565b60200260200101516005600085600281518110611b0d57611b0d613531565b60200260200101516001600160a01b03166001600160a01b0316815260200190815260200160002060050160006101000a8154816001600160a01b0302191690836001600160a01b0316021790555082600381518110611b6f57611b6f613531565b60200260200101516005600085600181518110611b8e57611b8e613531565b60200260200101516001600160a01b03166001600160a01b0316815260200190815260200160002060050160006101000a8154816001600160a01b0302191690836001600160a01b03160217905550826001815181106119df576119df613531565b82600381518110611c0357611c03613531565b60200260200101516005600085600081518110611c2257611c22613531565b60200260200101516001600160a01b03166001600160a01b0316815260200190815260200160002060050160006101000a8154816001600160a01b0302191690836001600160a01b0316021790555082600081518110611c8457611c84613531565b60200260200101516005600085600381518110611ca357611ca3613531565b60200260200101516001600160a01b03166001600160a01b0316815260200190815260200160002060050160006101000a8154816001600160a01b0302191690836001600160a01b0316021790555082600281518110611d0557611d05613531565b60200260200101516005600085600181518110611d2457611d24613531565b60200260200101516001600160a01b03166001600160a01b0316815260200190815260200160002060050160006101000a8154816001600160a01b0302191690836001600160a01b0316021790555082600181518110611d8657611d86613531565b602002602001015160056000856002815181106119fe576119fe613531565b6000611db187876115ef565b1515600114611dd25760405162461bcd60e51b81526004016103ec90613547565b83518551148015611de4575082518551145b611e275760405162461bcd60e51b815260206004820152601460248201527326bab9ba1031329039b0b6b2903632b733ba341760611b60448201526064016103ec565b6000878152600660205260409020600501546001906002036126da576000888152600660209081526040808320815160c08101835281548152600182015481850152600282018054845181870281018701865281815292959394860193830182828015611ebd57602002820191906000526020600020905b81546001600160a01b03168152600190910190602001808311611e9f575b5050505050815260200160038201805480602002602001604051908101604052809291908181526020018280548015611f1f57602002820191906000526020600020905b81546001600160a01b03168152600190910190602001808311611f01575b505050918352505060048201546001600160a01b03166020820152600590910154604090910152606081015180519192509081906001908110611f6457611f64613531565b60200260200101516001600160a01b03166005600083600081518110611f8c57611f8c613531565b6020908102919091018101516001600160a01b039081168352908201929092526040016000206005015416036124d657841561212e576004600082600281518110611fd957611fd9613531565b6020908102919091018101516001600160a01b031682528181019290925260409081016000908120601a8252909252902060030154600160a01b900460ff1615806120675750600560008260028151811061203657612036613531565b60200260200101516001600160a01b03166001600160a01b0316815260200190815260200160002060060154601014155b15612078576000935050505061270e565b600460008260038151811061208f5761208f613531565b6020908102919091018101516001600160a01b031682528181019290925260409081016000908120601a8252909252902060030154600160a01b900460ff16158061211d575060056000826003815181106120ec576120ec613531565b60200260200101516001600160a01b03166001600160a01b0316815260200190815260200160002060060154601014155b1561212e576000935050505061270e565b8751600414612143576000935050505061270e565b60005b60048110156124d0578060000361222f578160008151811061216a5761216a613531565b60200260200101516001600160a01b031689828151811061218d5761218d613531565b60200260200101516001600160a01b03161415806121f05750816003815181106121b9576121b9613531565b60200260200101516001600160a01b03168882815181106121dc576121dc613531565b60200260200101516001600160a01b031614155b806122185750600a87828151811061220a5761220a613531565b602002602001015160200151115b1561222a57600094505050505061270e565b6124c8565b80600103612299578160018151811061224a5761224a613531565b60200260200101516001600160a01b031689828151811061226d5761226d613531565b60200260200101516001600160a01b03161415806121f05750816002815181106121b9576121b9613531565b806002036123b357816002815181106122b4576122b4613531565b60200260200101516001600160a01b03168982815181106122d7576122d7613531565b60200260200101516001600160a01b031614158061233a57508160018151811061230357612303613531565b60200260200101516001600160a01b031688828151811061232657612326613531565b60200260200101516001600160a01b031614155b80612218575086818151811061235257612352613531565b602002602001015160200151600560008460028151811061237557612375613531565b60200260200101516001600160a01b03166001600160a01b03168152602001908152602001600020600601541461222a57600094505050505061270e565b816003815181106123c6576123c6613531565b60200260200101516001600160a01b03168982815181106123e9576123e9613531565b60200260200101516001600160a01b031614158061244c57508160008151811061241557612415613531565b60200260200101516001600160a01b031688828151811061243857612438613531565b60200260200101516001600160a01b031614155b806124b6575086818151811061246457612464613531565b602002602001015160200151600560008460038151811061248757612487613531565b60200260200101516001600160a01b03166001600160a01b031681526020019081526020016000206006015414155b156124c857600094505050505061270e565b600101612146565b506126d7565b87516002146124eb576000935050505061270e565b806000815181106124fe576124fe613531565b60200260200101516001600160a01b03168860008151811061252257612522613531565b60200260200101516001600160a01b031614158061258657508060038151811061254e5761254e613531565b60200260200101516001600160a01b03168760008151811061257257612572613531565b60200260200101516001600160a01b031614155b806125af5750600a866000815181106125a1576125a1613531565b602002602001015160200151115b156125c0576000935050505061270e565b806003815181106125d3576125d3613531565b60200260200101516001600160a01b0316886001815181106125f7576125f7613531565b60200260200101516001600160a01b031614158061265b57508060008151811061262357612623613531565b60200260200101516001600160a01b03168760018151811061264757612647613531565b60200260200101516001600160a01b031614155b806126c657508560018151811061267457612674613531565b602002602001015160200151600560008360038151811061269757612697613531565b60200260200101516001600160a01b03166001600160a01b031681526020019081526020016000206006015414155b156126d7576000935050505061270e565b50505b60008881526007602090815260408083208a84529091529020600301805460ff60a81b1916600160a81b8315150217905590505b9695505050505050565b600080546001600160a01b031633146127435760405162461bcd60e51b81526004016103ec906135c1565b600160005b83518110156104f4576005600085838151811061276757612767613531565b6020908102919091018101516001600160a01b0316825281019190915260400160009081206008015460ff16151590036127a457600091506104f4565b600101612748565b919050565b600060606127bf86866115ef565b15156001146127e05760405162461bcd60e51b81526004016103ec90613547565b82518451146128285760405162461bcd60e51b815260206004820152601460248201527326bab9ba1031329039b0b6b2903632b733ba341760611b60448201526064016103ec565b6000868152600760209081526040808320888452909152902060030154600160a81b900460ff1615156001146128985760405162461bcd60e51b815260206004820152601560248201527426bab9ba1039bbb0b81031b0b932103334b939ba1760591b60448201526064016103ec565b60005b8451811015612a14576128e287878784815181106128bb576128bb613531565b60200260200101518785815181106128d5576128d5613531565b60200260200101516104fb565b151560000361295f5760008781526006602090815260408083206003018054825181850281018501909352808352909283919083018282801561294e57602002820191906000526020600020905b81546001600160a01b03168152600190910190602001808311612930575b505050505090509250925050612e37565b6005600086838151811061297557612975613531565b60200260200101516001600160a01b03166001600160a01b0316815260200190815260200160002060070154601b03612a0c57600660008881526020019081526020016000206003018582815181106129d0576129d0613531565b60209081029190910181015182546001810184556000938452919092200180546001600160a01b0319166001600160a01b039092169190911790555b60010161289b565b50600086815260066020908152604080832060030180548251818502810185019093528083529192909190830182828015612a7857602002820191906000526020600020905b81546001600160a01b03168152600190910190602001808311612a5a575b5050505050905080600181518110612a9257612a92613531565b60200260200101516001600160a01b03166005600083600081518110612aba57612aba613531565b6020908102919091018101516001600160a01b03908116835290820192909252604001600020600501541603612ba25760036005600083600081518110612b0357612b03613531565b60200260200101516001600160a01b03166001600160a01b031681526020019081526020016000206001016000828254612b3d919061351e565b9250508190555060036005600083600181518110612b5d57612b5d613531565b60200260200101516001600160a01b03166001600160a01b031681526020019081526020016000206001016000828254612b97919061351e565b90915550612d339050565b80600281518110612bb557612bb5613531565b60200260200101516001600160a01b03166005600083600081518110612bdd57612bdd613531565b6020908102919091018101516001600160a01b03908116835290820192909252604001600020600501541603612c805760026005600083600081518110612c2657612c26613531565b60200260200101516001600160a01b03166001600160a01b031681526020019081526020016000206001016000828254612c60919061351e565b9250508190555060026005600083600281518110612b5d57612b5d613531565b60016005600083600081518110612c9957612c99613531565b60200260200101516001600160a01b03166001600160a01b031681526020019081526020016000206001016000828254612cd3919061351e565b9250508190555060016005600083600381518110612cf357612cf3613531565b60200260200101516001600160a01b03166001600160a01b031681526020019081526020016000206001016000828254612d2d919061351e565b90915550505b600087815260066020526040812060026005918201558251600e929084908290612d5f57612d5f613531565b60200260200101516001600160a01b03166001600160a01b031681526020019081526020016000206001015410612dfa57600087815260066020526040812060036005909101558151829190612db757612db7613531565b60200260200101516006600089815260200190815260200160002060040160006101000a8154816001600160a01b0302191690836001600160a01b031602179055505b600087815260066020526040902060050154600203612e30576000878152600660205260408120612e3091600390910190612ea5565b6001925090505b94509492505050565b828054828255906000526020600020908101928215612e95579160200282015b82811115612e9557825182546001600160a01b0319166001600160a01b03909116178255602090920191600190910190612e60565b50612ea1929150612ec6565b5090565b5080546000825590600052602060002090810190612ec39190612ec6565b50565b5b80821115612ea15760008155600101612ec7565b600060208284031215612eed57600080fd5b5035919050565b634e487b7160e01b600052604160045260246000fd5b60405160a0810167ffffffffffffffff81118282101715612f2d57612f2d612ef4565b60405290565b604051601f8201601f1916810167ffffffffffffffff81118282101715612f5c57612f5c612ef4565b604052919050565b600067ffffffffffffffff821115612f7e57612f7e612ef4565b5060051b60200190565b80356001600160a01b03811681146127ac57600080fd5b803580151581146127ac57600080fd5b600082601f830112612fc057600080fd5b81356020612fd5612fd083612f64565b612f33565b82815260a09283028501820192828201919087851115612ff457600080fd5b8387015b8581101561305d5781818a0312156130105760008081fd5b613018612f0a565b81358152858201358682015260408083013590820152606061303b818401612f88565b90820152608061304c838201612f9f565b908201528452928401928101612ff8565b5090979650505050505050565b60006020828403121561307c57600080fd5b813567ffffffffffffffff81111561309357600080fd5b61075984828501612faf565b6000604082840312156130b157600080fd5b6040516040810167ffffffffffffffff82821081831117156130d5576130d5612ef4565b816040528293506130e585612f88565b835260208501359150808211156130fb57600080fd5b5061310885828601612faf565b6020830152505092915050565b6000806000806080858703121561312b57600080fd5b843593506020850135925061314260408601612f88565b9150606085013567ffffffffffffffff81111561315e57600080fd5b61316a8782880161309f565b91505092959194509250565b6000806040838503121561318957600080fd5b61319283612f88565b9150602083013567ffffffffffffffff8111156131ae57600080fd5b6131ba8582860161309f565b9150509250929050565b600082601f8301126131d557600080fd5b813560206131e5612fd083612f64565b8083825260208201915060208460051b87010193508684111561320757600080fd5b602086015b8481101561322a5761321d81612f88565b835291830191830161320c565b509695505050505050565b6000806040838503121561324857600080fd5b82359150602083013567ffffffffffffffff81111561326657600080fd5b6131ba858286016131c4565b60006020828403121561328457600080fd5b813567ffffffffffffffff81111561329b57600080fd5b610759848285016131c4565b6000602082840312156132b957600080fd5b610a1682612f88565b634e487b7160e01b600052602160045260246000fd5b60408101600d84106132fa57634e487b7160e01b600052602160045260246000fd5b9281526020015290565b6000806040838503121561331757600080fd5b50508035926020909101359150565b60008060008060008060c0878903121561333f57600080fd5b8635955060208701359450604087013567ffffffffffffffff8082111561336557600080fd5b6133718a838b016131c4565b9550606089013591508082111561338757600080fd5b6133938a838b016131c4565b945060808901359150808211156133a957600080fd5b506133b689828a01612faf565b9250506133c560a08801612f9f565b90509295509295509295565b600080600080608085870312156133e757600080fd5b843593506020808601359350604086013567ffffffffffffffff8082111561340e57600080fd5b61341a89838a016131c4565b9450606088013591508082111561343057600080fd5b818801915088601f83011261344457600080fd5b8135613452612fd082612f64565b81815260059190911b8301840190848101908b83111561347157600080fd5b8585015b838110156134a95780358581111561348d5760008081fd5b61349b8e89838a010161309f565b845250918601918601613475565b50989b979a50959850505050505050565b600060408201841515835260206040602085015281855180845260608601915060208701935060005b8181101561305d5784516001600160a01b0316835293830193918301916001016134e3565b634e487b7160e01b600052601160045260246000fd5b808201808211156107ee576107ee613508565b634e487b7160e01b600052603260045260246000fd5b6020808252601b908201527f496e76616c69642067616d65496420616e6420726f756e6449642e0000000000604082015260600190565b60006001820161359057613590613508565b5060010190565b634e487b7160e01b600052601260045260246000fd5b6000826135bc576135bc613597565b500690565b6020808252602b908201527f4f6e6c7920636f6e7472616374206f776e65722063616e2063616c6c2074686960408201526a732066756e6374696f6e2160a81b606082015260800190565b818103818111156107ee576107ee613508565b60008161362e5761362e613508565b506000190190565b60008261364557613645613597565b50049056fea2646970667358221220ac4f9a50e797c5f04e94e1436101dde297e0deb46f673584583a1056d6c8358364736f6c63430008180033",
  "linkReferences": {},
  "deployedLinkReferences": {}
}